{
  "_format": "hh-sol-artifact-1",
  "contractName": "BookLibrary",
  "sourceName": "contracts/BookLibrary.sol",
  "abi": [
    {
      "anonymous": false,
      "inputs": [
        {
          "indexed": false,
          "internalType": "string",
          "name": "title",
          "type": "string"
        },
        {
          "indexed": false,
          "internalType": "uint256",
          "name": "copies",
          "type": "uint256"
        }
      ],
      "name": "LogAddedBook",
      "type": "event"
    },
    {
      "anonymous": false,
      "inputs": [
        {
          "indexed": false,
          "internalType": "string",
          "name": "title",
          "type": "string"
        },
        {
          "indexed": false,
          "internalType": "address",
          "name": "user",
          "type": "address"
        }
      ],
      "name": "LogBookBorrowed",
      "type": "event"
    },
    {
      "anonymous": false,
      "inputs": [
        {
          "indexed": false,
          "internalType": "string",
          "name": "title",
          "type": "string"
        },
        {
          "indexed": false,
          "internalType": "address",
          "name": "user",
          "type": "address"
        }
      ],
      "name": "LogBookReturned",
      "type": "event"
    },
    {
      "anonymous": false,
      "inputs": [
        {
          "indexed": true,
          "internalType": "address",
          "name": "previousOwner",
          "type": "address"
        },
        {
          "indexed": true,
          "internalType": "address",
          "name": "newOwner",
          "type": "address"
        }
      ],
      "name": "OwnershipTransferred",
      "type": "event"
    },
    {
      "inputs": [
        {
          "internalType": "string",
          "name": "_title",
          "type": "string"
        },
        {
          "internalType": "uint8",
          "name": "_copies",
          "type": "uint8"
        }
      ],
      "name": "addBook",
      "outputs": [],
      "stateMutability": "nonpayable",
      "type": "function"
    },
    {
      "inputs": [
        {
          "internalType": "uint256",
          "name": "",
          "type": "uint256"
        }
      ],
      "name": "bookKey",
      "outputs": [
        {
          "internalType": "bytes32",
          "name": "",
          "type": "bytes32"
        }
      ],
      "stateMutability": "view",
      "type": "function"
    },
    {
      "inputs": [
        {
          "internalType": "bytes32",
          "name": "",
          "type": "bytes32"
        }
      ],
      "name": "books",
      "outputs": [
        {
          "internalType": "uint8",
          "name": "copies",
          "type": "uint8"
        },
        {
          "internalType": "string",
          "name": "title",
          "type": "string"
        }
      ],
      "stateMutability": "view",
      "type": "function"
    },
    {
      "inputs": [
        {
          "internalType": "bytes32",
          "name": "bookId",
          "type": "bytes32"
        }
      ],
      "name": "borrowBook",
      "outputs": [],
      "stateMutability": "nonpayable",
      "type": "function"
    },
    {
      "inputs": [
        {
          "internalType": "address",
          "name": "",
          "type": "address"
        },
        {
          "internalType": "bytes32",
          "name": "",
          "type": "bytes32"
        }
      ],
      "name": "borrowedBook",
      "outputs": [
        {
          "internalType": "bool",
          "name": "",
          "type": "bool"
        }
      ],
      "stateMutability": "view",
      "type": "function"
    },
    {
      "inputs": [
        {
          "internalType": "bytes32",
          "name": "bookId",
          "type": "bytes32"
        }
      ],
      "name": "getAllAddressesBorrowedBook",
      "outputs": [
        {
          "internalType": "address[]",
          "name": "_book",
          "type": "address[]"
        }
      ],
      "stateMutability": "view",
      "type": "function"
    },
    {
      "inputs": [],
      "name": "getAvailableBooks",
      "outputs": [
        {
          "components": [
            {
              "internalType": "uint8",
              "name": "copies",
              "type": "uint8"
            },
            {
              "internalType": "string",
              "name": "title",
              "type": "string"
            },
            {
              "internalType": "address[]",
              "name": "bookBorrowedAddresses",
              "type": "address[]"
            }
          ],
          "internalType": "struct BookLibrary.Book[]",
          "name": "",
          "type": "tuple[]"
        }
      ],
      "stateMutability": "view",
      "type": "function"
    },
    {
      "inputs": [],
      "name": "owner",
      "outputs": [
        {
          "internalType": "address",
          "name": "",
          "type": "address"
        }
      ],
      "stateMutability": "view",
      "type": "function"
    },
    {
      "inputs": [],
      "name": "renounceOwnership",
      "outputs": [],
      "stateMutability": "nonpayable",
      "type": "function"
    },
    {
      "inputs": [
        {
          "internalType": "bytes32",
          "name": "bookId",
          "type": "bytes32"
        }
      ],
      "name": "returnBook",
      "outputs": [],
      "stateMutability": "nonpayable",
      "type": "function"
    },
    {
      "inputs": [
        {
          "internalType": "address",
          "name": "newOwner",
          "type": "address"
        }
      ],
      "name": "transferOwnership",
      "outputs": [],
      "stateMutability": "nonpayable",
      "type": "function"
    }
  ],
  "bytecode": "0x608060405234801561001057600080fd5b5061002d61002261003260201b60201c565b61003a60201b60201c565b6100fe565b600033905090565b60008060009054906101000a900473ffffffffffffffffffffffffffffffffffffffff169050816000806101000a81548173ffffffffffffffffffffffffffffffffffffffff021916908373ffffffffffffffffffffffffffffffffffffffff1602179055508173ffffffffffffffffffffffffffffffffffffffff168173ffffffffffffffffffffffffffffffffffffffff167f8be0079c531659141344cd1fd0a4f28419497f9722a3daafe3b4186f6b6457e060405160405180910390a35050565b612255806200010e6000396000f3fe608060405234801561001057600080fd5b50600436106100a95760003560e01c80638da5cb5b116100715780638da5cb5b14610165578063a63ac38e14610183578063bddc6fa71461019f578063d25a4348146101cf578063d6c084d9146101eb578063f2fde38b14610209576100a9565b80630c0dee70146100ae5780630c35c316146100df57806312775c161461010f5780634d162aa21461012b578063715018a61461015b575b600080fd5b6100c860048036038101906100c391906111f4565b610225565b6040516100d69291906112cd565b60405180910390f35b6100f960048036038101906100f491906111f4565b6102de565b60405161010691906113ed565b60405180910390f35b610129600480360381019061012491906111f4565b61044c565b005b61014560048036038101906101409190611445565b6105e3565b6040516101529190611481565b60405180910390f35b610163610607565b005b61016d61061b565b60405161017a91906114ab565b60405180910390f35b61019d60048036038101906101989190611627565b610644565b005b6101b960048036038101906101b491906116af565b610859565b6040516101c6919061170a565b60405180910390f35b6101e960048036038101906101e491906111f4565b610888565b005b6101f3610adc565b6040516102009190611906565b60405180910390f35b610223600480360381019061021e9190611928565b610f12565b005b60026020528060005260406000206000915090508060000160009054906101000a900460ff169080600101805461025b90611984565b80601f016020809104026020016040519081016040528092919081815260200182805461028790611984565b80156102d45780601f106102a9576101008083540402835291602001916102d4565b820191906000526020600020905b8154815290600101906020018083116102b757829003601f168201915b5050505050905082565b60606000600260008481526020019081526020016000206040518060600160405290816000820160009054906101000a900460ff1660ff1660ff16815260200160018201805461032d90611984565b80601f016020809104026020016040519081016040528092919081815260200182805461035990611984565b80156103a65780601f1061037b576101008083540402835291602001916103a6565b820191906000526020600020905b81548152906001019060200180831161038957829003601f168201915b505050505081526020016002820180548060200260200160405190810160405280929190818152602001828054801561043457602002820191906000526020600020905b8160009054906101000a900473ffffffffffffffffffffffffffffffffffffffff1673ffffffffffffffffffffffffffffffffffffffff16815260200190600101908083116103ea575b50505050508152505090508060400151915050919050565b6000600260008381526020019081526020016000209050600360003373ffffffffffffffffffffffffffffffffffffffff1673ffffffffffffffffffffffffffffffffffffffff168152602001908152602001600020600083815260200190815260200160002060009054906101000a900460ff16610500576040517f08c379a00000000000000000000000000000000000000000000000000000000081526004016104f790611a27565b60405180910390fd5b6000600360003373ffffffffffffffffffffffffffffffffffffffff1673ffffffffffffffffffffffffffffffffffffffff168152602001908152602001600020600084815260200190815260200160002060006101000a81548160ff02191690831515021790555080600001600081819054906101000a900460ff168092919061058a90611a76565b91906101000a81548160ff021916908360ff160217905550507f85a44c5a2eee90e84b72a99b84ef7d745f384551951b8fe780fc0645f1c27d8981600101336040516105d7929190611b38565b60405180910390a15050565b600181815481106105f357600080fd5b906000526020600020016000915090505481565b61060f610f95565b6106196000611013565b565b60008060009054906101000a900473ffffffffffffffffffffffffffffffffffffffff16905090565b61064c610f95565b8181600082905060008151118015610667575060008260ff16115b6106a6576040517f08c379a000000000000000000000000000000000000000000000000000000000815260040161069d90611bb4565b60405180910390fd5b84600060026000836040516020016106be9190611c10565b60405160208183030381529060405280519060200120815260200190815260200160002060010180546106f090611984565b905014610732576040517f08c379a000000000000000000000000000000000000000000000000000000000815260040161072990611c73565b60405180910390fd5b6000866040516020016107459190611c10565b6040516020818303038152906040528051906020012090506060600060405180606001604052808960ff1681526020018a8152602001838152509050806002600085815260200190815260200160002060008201518160000160006101000a81548160ff021916908360ff16021790555060208201518160010190816107cb9190611e2a565b5060408201518160020190805190602001906107e89291906110df565b5090505060018390806001815401808255809150506001900390600052602060002001600090919091909150557f2f1c1d3833dc0931208a347b2958819919a068ec442f194eae6b80146cb35af68989604051610846929190611f2d565b60405180910390a1505050505050505050565b60036020528160005260406000206020528060005260406000206000915091509054906101000a900460ff1681565b600060026000838152602001908152602001600020905060008160000160009054906101000a900460ff1660ff16116108f6576040517f08c379a00000000000000000000000000000000000000000000000000000000081526004016108ed90611fcf565b60405180910390fd5b600360003373ffffffffffffffffffffffffffffffffffffffff1673ffffffffffffffffffffffffffffffffffffffff168152602001908152602001600020600083815260200190815260200160002060009054906101000a900460ff1615610994576040517f08c379a000000000000000000000000000000000000000000000000000000000815260040161098b90612061565b60405180910390fd5b6001600360003373ffffffffffffffffffffffffffffffffffffffff1673ffffffffffffffffffffffffffffffffffffffff168152602001908152602001600020600084815260200190815260200160002060006101000a81548160ff02191690831515021790555080600201339080600181540180825580915050600190039060005260206000200160009091909190916101000a81548173ffffffffffffffffffffffffffffffffffffffff021916908373ffffffffffffffffffffffffffffffffffffffff16021790555080600001600081819054906101000a900460ff1680929190610a8390612081565b91906101000a81548160ff021916908360ff160217905550507f98a96a27b2755bcd656b9e243159ba0f25cc02a0e56bf8d0bd5ddd80d8a0cbfe8160010133604051610ad0929190611b38565b60405180910390a15050565b60606000805b600180549050811015610ca557600060018281548110610b0557610b046120aa565b5b906000526020600020015490506000600260008381526020019081526020016000206040518060600160405290816000820160009054906101000a900460ff1660ff1660ff168152602001600182018054610b5f90611984565b80601f0160208091040260200160405190810160405280929190818152602001828054610b8b90611984565b8015610bd85780601f10610bad57610100808354040283529160200191610bd8565b820191906000526020600020905b815481529060010190602001808311610bbb57829003601f168201915b5050505050815260200160028201805480602002602001604051908101604052809291908181526020018280548015610c6657602002820191906000526020600020905b8160009054906101000a900473ffffffffffffffffffffffffffffffffffffffff1673ffffffffffffffffffffffffffffffffffffffff1681526020019060010190808311610c1c575b50505050508152505090506000816000015160ff161115610c90578380610c8c90611a76565b9450505b50508080610c9d906120d9565b915050610ae2565b5060008160ff1667ffffffffffffffff811115610cc557610cc46114d0565b5b604051908082528060200260200182016040528015610cfe57816020015b610ceb611169565b815260200190600190039081610ce35790505b50905060005b600180549050811015610f095760006002600060018481548110610d2b57610d2a6120aa565b5b9060005260206000200154815260200190815260200160002060000160009054906101000a900460ff1660ff161115610ef6576002600060018381548110610d7657610d756120aa565b5b906000526020600020015481526020019081526020016000206040518060600160405290816000820160009054906101000a900460ff1660ff1660ff168152602001600182018054610dc790611984565b80601f0160208091040260200160405190810160405280929190818152602001828054610df390611984565b8015610e405780601f10610e1557610100808354040283529160200191610e40565b820191906000526020600020905b815481529060010190602001808311610e2357829003601f168201915b5050505050815260200160028201805480602002602001604051908101604052809291908181526020018280548015610ece57602002820191906000526020600020905b8160009054906101000a900473ffffffffffffffffffffffffffffffffffffffff1673ffffffffffffffffffffffffffffffffffffffff1681526020019060010190808311610e84575b505050505081525050828281518110610eea57610ee96120aa565b5b60200260200101819052505b8080610f01906120d9565b915050610d04565b50809250505090565b610f1a610f95565b600073ffffffffffffffffffffffffffffffffffffffff168173ffffffffffffffffffffffffffffffffffffffff1603610f89576040517f08c379a0000000000000000000000000000000000000000000000000000000008152600401610f8090612193565b60405180910390fd5b610f9281611013565b50565b610f9d6110d7565b73ffffffffffffffffffffffffffffffffffffffff16610fbb61061b565b73ffffffffffffffffffffffffffffffffffffffff1614611011576040517f08c379a0000000000000000000000000000000000000000000000000000000008152600401611008906121ff565b60405180910390fd5b565b60008060009054906101000a900473ffffffffffffffffffffffffffffffffffffffff169050816000806101000a81548173ffffffffffffffffffffffffffffffffffffffff021916908373ffffffffffffffffffffffffffffffffffffffff1602179055508173ffffffffffffffffffffffffffffffffffffffff168173ffffffffffffffffffffffffffffffffffffffff167f8be0079c531659141344cd1fd0a4f28419497f9722a3daafe3b4186f6b6457e060405160405180910390a35050565b600033905090565b828054828255906000526020600020908101928215611158579160200282015b828111156111575782518260006101000a81548173ffffffffffffffffffffffffffffffffffffffff021916908373ffffffffffffffffffffffffffffffffffffffff160217905550916020019190600101906110ff565b5b509050611165919061118d565b5090565b6040518060600160405280600060ff16815260200160608152602001606081525090565b5b808211156111a657600081600090555060010161118e565b5090565b6000604051905090565b600080fd5b600080fd5b6000819050919050565b6111d1816111be565b81146111dc57600080fd5b50565b6000813590506111ee816111c8565b92915050565b60006020828403121561120a576112096111b4565b5b6000611218848285016111df565b91505092915050565b600060ff82169050919050565b61123781611221565b82525050565b600081519050919050565b600082825260208201905092915050565b60005b8381101561127757808201518184015260208101905061125c565b60008484015250505050565b6000601f19601f8301169050919050565b600061129f8261123d565b6112a98185611248565b93506112b9818560208601611259565b6112c281611283565b840191505092915050565b60006040820190506112e2600083018561122e565b81810360208301526112f48184611294565b90509392505050565b600081519050919050565b600082825260208201905092915050565b6000819050602082019050919050565b600073ffffffffffffffffffffffffffffffffffffffff82169050919050565b600061135482611329565b9050919050565b61136481611349565b82525050565b6000611376838361135b565b60208301905092915050565b6000602082019050919050565b600061139a826112fd565b6113a48185611308565b93506113af83611319565b8060005b838110156113e05781516113c7888261136a565b97506113d283611382565b9250506001810190506113b3565b5085935050505092915050565b60006020820190508181036000830152611407818461138f565b905092915050565b6000819050919050565b6114228161140f565b811461142d57600080fd5b50565b60008135905061143f81611419565b92915050565b60006020828403121561145b5761145a6111b4565b5b600061146984828501611430565b91505092915050565b61147b816111be565b82525050565b60006020820190506114966000830184611472565b92915050565b6114a581611349565b82525050565b60006020820190506114c0600083018461149c565b92915050565b600080fd5b600080fd5b7f4e487b7100000000000000000000000000000000000000000000000000000000600052604160045260246000fd5b61150882611283565b810181811067ffffffffffffffff82111715611527576115266114d0565b5b80604052505050565b600061153a6111aa565b905061154682826114ff565b919050565b600067ffffffffffffffff821115611566576115656114d0565b5b61156f82611283565b9050602081019050919050565b82818337600083830152505050565b600061159e6115998461154b565b611530565b9050828152602081018484840111156115ba576115b96114cb565b5b6115c584828561157c565b509392505050565b600082601f8301126115e2576115e16114c6565b5b81356115f284826020860161158b565b91505092915050565b61160481611221565b811461160f57600080fd5b50565b600081359050611621816115fb565b92915050565b6000806040838503121561163e5761163d6111b4565b5b600083013567ffffffffffffffff81111561165c5761165b6111b9565b5b611668858286016115cd565b925050602061167985828601611612565b9150509250929050565b61168c81611349565b811461169757600080fd5b50565b6000813590506116a981611683565b92915050565b600080604083850312156116c6576116c56111b4565b5b60006116d48582860161169a565b92505060206116e5858286016111df565b9150509250929050565b60008115159050919050565b611704816116ef565b82525050565b600060208201905061171f60008301846116fb565b92915050565b600081519050919050565b600082825260208201905092915050565b6000819050602082019050919050565b61175a81611221565b82525050565b600082825260208201905092915050565b600061177c8261123d565b6117868185611760565b9350611796818560208601611259565b61179f81611283565b840191505092915050565b600082825260208201905092915050565b60006117c6826112fd565b6117d081856117aa565b93506117db83611319565b8060005b8381101561180c5781516117f3888261136a565b97506117fe83611382565b9250506001810190506117df565b5085935050505092915050565b60006060830160008301516118316000860182611751565b50602083015184820360208601526118498282611771565b9150506040830151848203604086015261186382826117bb565b9150508091505092915050565b600061187c8383611819565b905092915050565b6000602082019050919050565b600061189c82611725565b6118a68185611730565b9350836020820285016118b885611741565b8060005b858110156118f457848403895281516118d58582611870565b94506118e083611884565b925060208a019950506001810190506118bc565b50829750879550505050505092915050565b600060208201905081810360008301526119208184611891565b905092915050565b60006020828403121561193e5761193d6111b4565b5b600061194c8482850161169a565b91505092915050565b7f4e487b7100000000000000000000000000000000000000000000000000000000600052602260045260246000fd5b6000600282049050600182168061199c57607f821691505b6020821081036119af576119ae611955565b5b50919050565b7f596f752063616e27742072657475726e206120626f6f6b207468617420796f7560008201527f20686176656e277420626f72726f776564000000000000000000000000000000602082015250565b6000611a11603183611248565b9150611a1c826119b5565b604082019050919050565b60006020820190508181036000830152611a4081611a04565b9050919050565b7f4e487b7100000000000000000000000000000000000000000000000000000000600052601160045260246000fd5b6000611a8182611221565b915060ff8203611a9457611a93611a47565b5b600182019050919050565b60008190508160005260206000209050919050565b60008154611ac181611984565b611acb8186611248565b94506001821660008114611ae65760018114611afc57611b2f565b60ff198316865281151560200286019350611b2f565b611b0585611a9f565b60005b83811015611b2757815481890152600182019150602081019050611b08565b808801955050505b50505092915050565b60006040820190508181036000830152611b528185611ab4565b9050611b61602083018461149c565b9392505050565b7f426f6f6b2064617461206973206e6f742076616c69642e000000000000000000600082015250565b6000611b9e601783611248565b9150611ba982611b68565b602082019050919050565b60006020820190508181036000830152611bcd81611b91565b9050919050565b600081905092915050565b6000611bea8261123d565b611bf48185611bd4565b9350611c04818560208601611259565b80840191505092915050565b6000611c1c8284611bdf565b915081905092915050565b7f5468697320626f6f6b20697320616c7265616479206164646564000000000000600082015250565b6000611c5d601a83611248565b9150611c6882611c27565b602082019050919050565b60006020820190508181036000830152611c8c81611c50565b9050919050565b60006020601f8301049050919050565b600082821b905092915050565b600060088302611ce07fffffffffffffffffffffffffffffffffffffffffffffffffffffffffffffffff82611ca3565b611cea8683611ca3565b95508019841693508086168417925050509392505050565b6000819050919050565b6000611d27611d22611d1d8461140f565b611d02565b61140f565b9050919050565b6000819050919050565b611d4183611d0c565b611d55611d4d82611d2e565b848454611cb0565b825550505050565b600090565b611d6a611d5d565b611d75818484611d38565b505050565b5b81811015611d9957611d8e600082611d62565b600181019050611d7b565b5050565b601f821115611dde57611daf81611a9f565b611db884611c93565b81016020851015611dc7578190505b611ddb611dd385611c93565b830182611d7a565b50505b505050565b600082821c905092915050565b6000611e0160001984600802611de3565b1980831691505092915050565b6000611e1a8383611df0565b9150826002028217905092915050565b611e338261123d565b67ffffffffffffffff811115611e4c57611e4b6114d0565b5b611e568254611984565b611e61828285611d9d565b600060209050601f831160018114611e945760008415611e82578287015190505b611e8c8582611e0e565b865550611ef4565b601f198416611ea286611a9f565b60005b82811015611eca57848901518255600182019150602085019450602081019050611ea5565b86831015611ee75784890151611ee3601f891682611df0565b8355505b6001600288020188555050505b505050505050565b6000611f17611f12611f0d84611221565b611d02565b61140f565b9050919050565b611f2781611efc565b82525050565b60006040820190508181036000830152611f478185611294565b9050611f566020830184611f1e565b9392505050565b7f5468657265206973206e6f20636f706965732066726f6d207468697320626f6f60008201527f6b206c6566740000000000000000000000000000000000000000000000000000602082015250565b6000611fb9602683611248565b9150611fc482611f5d565b604082019050919050565b60006020820190508181036000830152611fe881611fac565b9050919050565b7f5468697320626f6f6b20697320616c726561647920626f72726f77656420627960008201527f20796f7500000000000000000000000000000000000000000000000000000000602082015250565b600061204b602483611248565b915061205682611fef565b604082019050919050565b6000602082019050818103600083015261207a8161203e565b9050919050565b600061208c82611221565b91506000820361209f5761209e611a47565b5b600182039050919050565b7f4e487b7100000000000000000000000000000000000000000000000000000000600052603260045260246000fd5b60006120e48261140f565b91507fffffffffffffffffffffffffffffffffffffffffffffffffffffffffffffffff820361211657612115611a47565b5b600182019050919050565b7f4f776e61626c653a206e6577206f776e657220697320746865207a65726f206160008201527f6464726573730000000000000000000000000000000000000000000000000000602082015250565b600061217d602683611248565b915061218882612121565b604082019050919050565b600060208201905081810360008301526121ac81612170565b9050919050565b7f4f776e61626c653a2063616c6c6572206973206e6f7420746865206f776e6572600082015250565b60006121e9602083611248565b91506121f4826121b3565b602082019050919050565b60006020820190508181036000830152612218816121dc565b905091905056fea26469706673582212202b14e5f142006b8f7a38149114520dd68733a3f9e5f098006f82c1da47f38c4764736f6c63430008120033",
  "linkReferences": {},
  "deployedLinkReferences": {}
}